{
  "contractName": "supplyChain",
  "abi": [
    {
      "anonymous": false,
      "inputs": [
        {
          "indexed": false,
          "internalType": "uint32",
          "name": "productId",
          "type": "uint32"
        }
      ],
      "name": "Transfer",
      "type": "event"
    },
    {
      "constant": true,
      "inputs": [],
      "name": "p_id",
      "outputs": [
        {
          "internalType": "uint32",
          "name": "",
          "type": "uint32"
        }
      ],
      "payable": false,
      "stateMutability": "view",
      "type": "function"
    },
    {
      "constant": true,
      "inputs": [
        {
          "internalType": "uint32",
          "name": "",
          "type": "uint32"
        }
      ],
      "name": "participants",
      "outputs": [
        {
          "internalType": "string",
          "name": "userName",
          "type": "string"
        },
        {
          "internalType": "string",
          "name": "password",
          "type": "string"
        },
        {
          "internalType": "string",
          "name": "participantType",
          "type": "string"
        },
        {
          "internalType": "address",
          "name": "participantAddress",
          "type": "address"
        }
      ],
      "payable": false,
      "stateMutability": "view",
      "type": "function"
    },
    {
      "constant": true,
      "inputs": [
        {
          "internalType": "uint32",
          "name": "",
          "type": "uint32"
        },
        {
          "internalType": "uint256",
          "name": "",
          "type": "uint256"
        }
      ],
      "name": "productTrack",
      "outputs": [
        {
          "internalType": "uint32",
          "name": "",
          "type": "uint32"
        }
      ],
      "payable": false,
      "stateMutability": "view",
      "type": "function"
    },
    {
      "constant": true,
      "inputs": [
        {
          "internalType": "uint32",
          "name": "",
          "type": "uint32"
        }
      ],
      "name": "products",
      "outputs": [
        {
          "internalType": "string",
          "name": "modelNumber",
          "type": "string"
        },
        {
          "internalType": "string",
          "name": "partNumber",
          "type": "string"
        },
        {
          "internalType": "string",
          "name": "serialNumber",
          "type": "string"
        },
        {
          "internalType": "address",
          "name": "productOwner",
          "type": "address"
        },
        {
          "internalType": "uint32",
          "name": "cost",
          "type": "uint32"
        },
        {
          "internalType": "uint32",
          "name": "mfgTimeStamp",
          "type": "uint32"
        }
      ],
      "payable": false,
      "stateMutability": "view",
      "type": "function"
    },
    {
      "constant": true,
      "inputs": [],
      "name": "r_id",
      "outputs": [
        {
          "internalType": "uint32",
          "name": "",
          "type": "uint32"
        }
      ],
      "payable": false,
      "stateMutability": "view",
      "type": "function"
    },
    {
      "constant": true,
      "inputs": [
        {
          "internalType": "uint32",
          "name": "",
          "type": "uint32"
        }
      ],
      "name": "registrations",
      "outputs": [
        {
          "internalType": "uint32",
          "name": "productId",
          "type": "uint32"
        },
        {
          "internalType": "uint32",
          "name": "ownerId",
          "type": "uint32"
        },
        {
          "internalType": "uint32",
          "name": "trxTimeStamp",
          "type": "uint32"
        },
        {
          "internalType": "address",
          "name": "productOwner",
          "type": "address"
        }
      ],
      "payable": false,
      "stateMutability": "view",
      "type": "function"
    },
    {
      "constant": true,
      "inputs": [],
      "name": "u_id",
      "outputs": [
        {
          "internalType": "uint32",
          "name": "",
          "type": "uint32"
        }
      ],
      "payable": false,
      "stateMutability": "view",
      "type": "function"
    },
    {
      "constant": false,
      "inputs": [
        {
          "internalType": "string",
          "name": "_name",
          "type": "string"
        },
        {
          "internalType": "string",
          "name": "_pass",
          "type": "string"
        },
        {
          "internalType": "address",
          "name": "_pAdd",
          "type": "address"
        },
        {
          "internalType": "string",
          "name": "_pType",
          "type": "string"
        }
      ],
      "name": "createParticipant",
      "outputs": [
        {
          "internalType": "uint32",
          "name": "",
          "type": "uint32"
        }
      ],
      "payable": false,
      "stateMutability": "nonpayable",
      "type": "function"
    },
    {
      "constant": true,
      "inputs": [
        {
          "internalType": "uint32",
          "name": "_p_id",
          "type": "uint32"
        }
      ],
      "name": "getParticipantDetails",
      "outputs": [
        {
          "internalType": "string",
          "name": "",
          "type": "string"
        },
        {
          "internalType": "address",
          "name": "",
          "type": "address"
        },
        {
          "internalType": "string",
          "name": "",
          "type": "string"
        }
      ],
      "payable": false,
      "stateMutability": "view",
      "type": "function"
    },
    {
      "constant": false,
      "inputs": [
        {
          "internalType": "uint32",
          "name": "_ownerId",
          "type": "uint32"
        },
        {
          "internalType": "string",
          "name": "_modelNumber",
          "type": "string"
        },
        {
          "internalType": "string",
          "name": "_partNumber",
          "type": "string"
        },
        {
          "internalType": "string",
          "name": "_serialNumber",
          "type": "string"
        },
        {
          "internalType": "uint32",
          "name": "_productCost",
          "type": "uint32"
        }
      ],
      "name": "createProduct",
      "outputs": [
        {
          "internalType": "uint32",
          "name": "",
          "type": "uint32"
        }
      ],
      "payable": false,
      "stateMutability": "nonpayable",
      "type": "function"
    },
    {
      "constant": true,
      "inputs": [
        {
          "internalType": "uint32",
          "name": "_productId",
          "type": "uint32"
        }
      ],
      "name": "getProductDetails",
      "outputs": [
        {
          "internalType": "string",
          "name": "",
          "type": "string"
        },
        {
          "internalType": "string",
          "name": "",
          "type": "string"
        },
        {
          "internalType": "string",
          "name": "",
          "type": "string"
        },
        {
          "internalType": "uint32",
          "name": "",
          "type": "uint32"
        },
        {
          "internalType": "address",
          "name": "",
          "type": "address"
        },
        {
          "internalType": "uint32",
          "name": "",
          "type": "uint32"
        }
      ],
      "payable": false,
      "stateMutability": "view",
      "type": "function"
    },
    {
      "constant": false,
      "inputs": [
        {
          "internalType": "uint32",
          "name": "_user1Id",
          "type": "uint32"
        },
        {
          "internalType": "uint32",
          "name": "_user2Id",
          "type": "uint32"
        },
        {
          "internalType": "uint32",
          "name": "_prodId",
          "type": "uint32"
        }
      ],
      "name": "transferToOwner",
      "outputs": [
        {
          "internalType": "bool",
          "name": "",
          "type": "bool"
        }
      ],
      "payable": false,
      "stateMutability": "nonpayable",
      "type": "function"
    },
    {
      "constant": true,
      "inputs": [
        {
          "internalType": "uint32",
          "name": "_regId",
          "type": "uint32"
        }
      ],
      "name": "getRegistrationDetails",
      "outputs": [
        {
          "internalType": "uint32",
          "name": "",
          "type": "uint32"
        },
        {
          "internalType": "uint32",
          "name": "",
          "type": "uint32"
        },
        {
          "internalType": "address",
          "name": "",
          "type": "address"
        },
        {
          "internalType": "uint32",
          "name": "",
          "type": "uint32"
        }
      ],
      "payable": false,
      "stateMutability": "view",
      "type": "function"
    }
  ],
  "bytecode": "0x608060405260008060006101000a81548163ffffffff021916908363ffffffff16021790555060008060046101000a81548163ffffffff021916908363ffffffff16021790555060008060086101000a81548163ffffffff021916908363ffffffff16021790555034801561007357600080fd5b50612700806100836000396000f3fe608060405234801561001057600080fd5b50600436106100cf5760003560e01c806383a32c551161008c578063b9d93d5f11610066578063b9d93d5f146109aa578063bf712fd614610a57578063e9f06d2b14610c35578063f79e547b14610c5f576100cf565b806383a32c55146106aa57806389138c00146107575780639dfb56ac14610980576100cf565b8063043ba46a146100d45780631a074802146100fe57806328d5b69a1461015c5780635617f01e1461033a5780636083b3ff146104865780637d0a9ac9146104f2575b600080fd5b6100dc610e88565b604051808263ffffffff1663ffffffff16815260200191505060405180910390f35b61013a6004803603604081101561011457600080fd5b81019080803563ffffffff16906020019092919080359060200190929190505050610e9d565b604051808263ffffffff1663ffffffff16815260200191505060405180910390f35b61018e6004803603602081101561017257600080fd5b81019080803563ffffffff169060200190929190505050610ee3565b604051808060200180602001806020018763ffffffff1663ffffffff1681526020018673ffffffffffffffffffffffffffffffffffffffff1673ffffffffffffffffffffffffffffffffffffffff1681526020018563ffffffff1663ffffffff16815260200184810384528a818151815260200191508051906020019080838360005b8381101561022c578082015181840152602081019050610211565b50505050905090810190601f1680156102595780820380516001836020036101000a031916815260200191505b50848103835289818151815260200191508051906020019080838360005b83811015610292578082015181840152602081019050610277565b50505050905090810190601f1680156102bf5780820380516001836020036101000a031916815260200191505b50848103825288818151815260200191508051906020019080838360005b838110156102f85780820151818401526020810190506102dd565b50505050905090810190601f1680156103255780820380516001836020036101000a031916815260200191505b50995050505050505050505060405180910390f35b61036c6004803603602081101561035057600080fd5b81019080803563ffffffff1690602001909291905050506111e5565b60405180806020018473ffffffffffffffffffffffffffffffffffffffff1673ffffffffffffffffffffffffffffffffffffffff16815260200180602001838103835286818151815260200191508051906020019080838360005b838110156103e25780820151818401526020810190506103c7565b50505050905090810190601f16801561040f5780820380516001836020036101000a031916815260200191505b50838103825284818151815260200191508051906020019080838360005b8381101561044857808201518184015260208101905061042d565b50505050905090810190601f1680156104755780820380516001836020036101000a031916815260200191505b509550505050505060405180910390f35b6104d86004803603606081101561049c57600080fd5b81019080803563ffffffff169060200190929190803563ffffffff169060200190929190803563ffffffff1690602001909291905050506113b7565b604051808215151515815260200191505060405180910390f35b6105246004803603602081101561050857600080fd5b81019080803563ffffffff169060200190929190505050611b22565b604051808060200180602001806020018573ffffffffffffffffffffffffffffffffffffffff1673ffffffffffffffffffffffffffffffffffffffff168152602001848103845288818151815260200191508051906020019080838360005b8381101561059e578082015181840152602081019050610583565b50505050905090810190601f1680156105cb5780820380516001836020036101000a031916815260200191505b50848103835287818151815260200191508051906020019080838360005b838110156106045780820151818401526020810190506105e9565b50505050905090810190601f1680156106315780820380516001836020036101000a031916815260200191505b50848103825286818151815260200191508051906020019080838360005b8381101561066a57808201518184015260208101905061064f565b50505050905090810190601f1680156106975780820380516001836020036101000a031916815260200191505b5097505050505050505060405180910390f35b6106dc600480360360208110156106c057600080fd5b81019080803563ffffffff169060200190929190505050611d3a565b604051808563ffffffff1663ffffffff1681526020018463ffffffff1663ffffffff1681526020018363ffffffff1663ffffffff1681526020018273ffffffffffffffffffffffffffffffffffffffff1673ffffffffffffffffffffffffffffffffffffffff16815260200194505050505060405180910390f35b61095e6004803603608081101561076d57600080fd5b810190808035906020019064010000000081111561078a57600080fd5b82018360208201111561079c57600080fd5b803590602001918460018302840111640100000000831117156107be57600080fd5b91908080601f016020809104026020016040519081016040528093929190818152602001838380828437600081840152601f19601f8201169050808301925050505050505091929192908035906020019064010000000081111561082157600080fd5b82018360208201111561083357600080fd5b8035906020019184600183028401116401000000008311171561085557600080fd5b91908080601f016020809104026020016040519081016040528093929190818152602001838380828437600081840152601f19601f820116905080830192505050505050509192919290803573ffffffffffffffffffffffffffffffffffffffff169060200190929190803590602001906401000000008111156108d857600080fd5b8201836020820111156108ea57600080fd5b8035906020019184600183028401116401000000008311171561090c57600080fd5b91908080601f016020809104026020016040519081016040528093929190818152602001838380828437600081840152601f19601f820116905080830192505050505050509192919290505050611dba565b604051808263ffffffff1663ffffffff16815260200191505060405180910390f35b610988611f0b565b604051808263ffffffff1663ffffffff16815260200191505060405180910390f35b6109dc600480360360208110156109c057600080fd5b81019080803563ffffffff169060200190929190505050611f21565b604051808563ffffffff1663ffffffff1681526020018463ffffffff1663ffffffff1681526020018373ffffffffffffffffffffffffffffffffffffffff1673ffffffffffffffffffffffffffffffffffffffff1681526020018263ffffffff1663ffffffff16815260200194505050505060405180910390f35b610a8960048036036020811015610a6d57600080fd5b81019080803563ffffffff169060200190929190505050612047565b604051808060200180602001806020018773ffffffffffffffffffffffffffffffffffffffff1673ffffffffffffffffffffffffffffffffffffffff1681526020018663ffffffff1663ffffffff1681526020018563ffffffff1663ffffffff16815260200184810384528a818151815260200191508051906020019080838360005b83811015610b27578082015181840152602081019050610b0c565b50505050905090810190601f168015610b545780820380516001836020036101000a031916815260200191505b50848103835289818151815260200191508051906020019080838360005b83811015610b8d578082015181840152602081019050610b72565b50505050905090810190601f168015610bba5780820380516001836020036101000a031916815260200191505b50848103825288818151815260200191508051906020019080838360005b83811015610bf3578082015181840152602081019050610bd8565b50505050905090810190601f168015610c205780820380516001836020036101000a031916815260200191505b50995050505050505050505060405180910390f35b610c3d61228b565b604051808263ffffffff1663ffffffff16815260200191505060405180910390f35b610e66600480360360a0811015610c7557600080fd5b81019080803563ffffffff16906020019092919080359060200190640100000000811115610ca257600080fd5b820183602082011115610cb457600080fd5b80359060200191846001830284011164010000000083111715610cd657600080fd5b91908080601f016020809104026020016040519081016040528093929190818152602001838380828437600081840152601f19601f82011690508083019250505050505050919291929080359060200190640100000000811115610d3957600080fd5b820183602082011115610d4b57600080fd5b80359060200191846001830284011164010000000083111715610d6d57600080fd5b91908080601f016020809104026020016040519081016040528093929190818152602001838380828437600081840152601f19601f82011690508083019250505050505050919291929080359060200190640100000000811115610dd057600080fd5b820183602082011115610de257600080fd5b80359060200191846001830284011164010000000083111715610e0457600080fd5b91908080601f016020809104026020016040519081016040528093929190818152602001838380828437600081840152601f19601f820116905080830192505050505050509192919290803563ffffffff1690602001909291905050506122a1565b604051808263ffffffff1663ffffffff16815260200191505060405180910390f35b6000809054906101000a900463ffffffff1681565b60046020528160005260406000208181548110610eb657fe5b9060005260206000209060089182820401919006600402915091509054906101000a900463ffffffff1681565b60608060606000806000600160008863ffffffff1663ffffffff168152602001908152602001600020600001600160008963ffffffff1663ffffffff168152602001908152602001600020600101600160008a63ffffffff1663ffffffff168152602001908152602001600020600201600160008b63ffffffff1663ffffffff16815260200190815260200160002060030160149054906101000a900463ffffffff16600160008c63ffffffff1663ffffffff16815260200190815260200160002060030160009054906101000a900473ffffffffffffffffffffffffffffffffffffffff16600160008d63ffffffff1663ffffffff16815260200190815260200160002060030160189054906101000a900463ffffffff16858054600181600116156101000203166002900480601f0160208091040260200160405190810160405280929190818152602001828054600181600116156101000203166002900480156110915780601f1061106657610100808354040283529160200191611091565b820191906000526020600020905b81548152906001019060200180831161107457829003601f168201915b50505050509550848054600181600116156101000203166002900480601f01602080910402602001604051908101604052809291908181526020018280546001816001161561010002031660029004801561112d5780601f106111025761010080835404028352916020019161112d565b820191906000526020600020905b81548152906001019060200180831161111057829003601f168201915b50505050509450838054600181600116156101000203166002900480601f0160208091040260200160405190810160405280929190818152602001828054600181600116156101000203166002900480156111c95780601f1061119e576101008083540402835291602001916111c9565b820191906000526020600020905b8154815290600101906020018083116111ac57829003601f168201915b5050505050935095509550955095509550955091939550919395565b606060006060600260008563ffffffff1663ffffffff168152602001908152602001600020600001600260008663ffffffff1663ffffffff16815260200190815260200160002060030160009054906101000a900473ffffffffffffffffffffffffffffffffffffffff16600260008763ffffffff1663ffffffff168152602001908152602001600020600201828054600181600116156101000203166002900480601f0160208091040260200160405190810160405280929190818152602001828054600181600116156101000203166002900480156113075780601f106112dc57610100808354040283529160200191611307565b820191906000526020600020905b8154815290600101906020018083116112ea57829003601f168201915b50505050509250808054600181600116156101000203166002900480601f0160208091040260200160405190810160405280929190818152602001828054600181600116156101000203166002900480156113a35780601f10611378576101008083540402835291602001916113a3565b820191906000526020600020905b81548152906001019060200180831161138657829003601f168201915b505050505090509250925092509193909250565b60006113c1612598565b600260008663ffffffff1663ffffffff168152602001908152602001600020604051806080016040529081600082018054600181600116156101000203166002900480601f0160208091040260200160405190810160405280929190818152602001828054600181600116156101000203166002900480156114845780601f1061145957610100808354040283529160200191611484565b820191906000526020600020905b81548152906001019060200180831161146757829003601f168201915b50505050508152602001600182018054600181600116156101000203166002900480601f0160208091040260200160405190810160405280929190818152602001828054600181600116156101000203166002900480156115265780601f106114fb57610100808354040283529160200191611526565b820191906000526020600020905b81548152906001019060200180831161150957829003601f168201915b50505050508152602001600282018054600181600116156101000203166002900480601f0160208091040260200160405190810160405280929190818152602001828054600181600116156101000203166002900480156115c85780601f1061159d576101008083540402835291602001916115c8565b820191906000526020600020905b8154815290600101906020018083116115ab57829003601f168201915b505050505081526020016003820160009054906101000a900473ffffffffffffffffffffffffffffffffffffffff1673ffffffffffffffffffffffffffffffffffffffff1673ffffffffffffffffffffffffffffffffffffffff16815250509050611631612598565b600260008663ffffffff1663ffffffff168152602001908152602001600020604051806080016040529081600082018054600181600116156101000203166002900480601f0160208091040260200160405190810160405280929190818152602001828054600181600116156101000203166002900480156116f45780601f106116c9576101008083540402835291602001916116f4565b820191906000526020600020905b8154815290600101906020018083116116d757829003601f168201915b50505050508152602001600182018054600181600116156101000203166002900480601f0160208091040260200160405190810160405280929190818152602001828054600181600116156101000203166002900480156117965780601f1061176b57610100808354040283529160200191611796565b820191906000526020600020905b81548152906001019060200180831161177957829003601f168201915b50505050508152602001600282018054600181600116156101000203166002900480601f0160208091040260200160405190810160405280929190818152602001828054600181600116156101000203166002900480156118385780601f1061180d57610100808354040283529160200191611838565b820191906000526020600020905b81548152906001019060200180831161181b57829003601f168201915b505050505081526020016003820160009054906101000a900473ffffffffffffffffffffffffffffffffffffffff1673ffffffffffffffffffffffffffffffffffffffff1673ffffffffffffffffffffffffffffffffffffffff16815250509050600080600881819054906101000a900463ffffffff168092919060010191906101000a81548163ffffffff021916908363ffffffff160217905550905084600360008363ffffffff1663ffffffff16815260200190815260200160002060000160006101000a81548163ffffffff021916908363ffffffff1602179055508160600151600360008363ffffffff1663ffffffff168152602001908152602001600020600001600c6101000a81548173ffffffffffffffffffffffffffffffffffffffff021916908373ffffffffffffffffffffffffffffffffffffffff16021790555085600360008363ffffffff1663ffffffff16815260200190815260200160002060000160046101000a81548163ffffffff021916908363ffffffff16021790555042600360008363ffffffff1663ffffffff16815260200190815260200160002060000160086101000a81548163ffffffff021916908363ffffffff1602179055508160600151600160008763ffffffff1663ffffffff16815260200190815260200160002060030160006101000a81548173ffffffffffffffffffffffffffffffffffffffff021916908373ffffffffffffffffffffffffffffffffffffffff160217905550600460008663ffffffff1663ffffffff16815260200190815260200160002081908060018154018082558091505090600182039060005260206000209060089182820401919006600402909192909190916101000a81548163ffffffff021916908363ffffffff160217905550507f4a7c2ed8675655246e11580786ba8a73e92e426d177368a8697ead49925146c285604051808263ffffffff1663ffffffff16815260200191505060405180910390a1600193505050509392505050565b6002602052806000526040600020600091509050806000018054600181600116156101000203166002900480601f016020809104026020016040519081016040528092919081815260200182805460018160011615610100020316600290048015611bce5780601f10611ba357610100808354040283529160200191611bce565b820191906000526020600020905b815481529060010190602001808311611bb157829003601f168201915b505050505090806001018054600181600116156101000203166002900480601f016020809104026020016040519081016040528092919081815260200182805460018160011615610100020316600290048015611c6c5780601f10611c4157610100808354040283529160200191611c6c565b820191906000526020600020905b815481529060010190602001808311611c4f57829003601f168201915b505050505090806002018054600181600116156101000203166002900480601f016020809104026020016040519081016040528092919081815260200182805460018160011615610100020316600290048015611d0a5780601f10611cdf57610100808354040283529160200191611d0a565b820191906000526020600020905b815481529060010190602001808311611ced57829003601f168201915b5050505050908060030160009054906101000a900473ffffffffffffffffffffffffffffffffffffffff16905084565b60036020528060005260406000206000915090508060000160009054906101000a900463ffffffff16908060000160049054906101000a900463ffffffff16908060000160089054906101000a900463ffffffff169080600001600c9054906101000a900473ffffffffffffffffffffffffffffffffffffffff16905084565b6000806000600481819054906101000a900463ffffffff168092919060010191906101000a81548163ffffffff021916908363ffffffff160217905550905085600260008363ffffffff1663ffffffff1681526020019081526020016000206000019080519060200190611e2f9291906125d6565b5084600260008363ffffffff1663ffffffff1681526020019081526020016000206001019080519060200190611e669291906125d6565b5083600260008363ffffffff1663ffffffff16815260200190815260200160002060030160006101000a81548173ffffffffffffffffffffffffffffffffffffffff021916908373ffffffffffffffffffffffffffffffffffffffff16021790555082600260008363ffffffff1663ffffffff1681526020019081526020016000206002019080519060200190611efe9291906125d6565b5080915050949350505050565b600060089054906101000a900463ffffffff1681565b600080600080611f2f612656565b600360008763ffffffff1663ffffffff1681526020019081526020016000206040518060800160405290816000820160009054906101000a900463ffffffff1663ffffffff1663ffffffff1681526020016000820160049054906101000a900463ffffffff1663ffffffff1663ffffffff1681526020016000820160089054906101000a900463ffffffff1663ffffffff1663ffffffff16815260200160008201600c9054906101000a900473ffffffffffffffffffffffffffffffffffffffff1673ffffffffffffffffffffffffffffffffffffffff1673ffffffffffffffffffffffffffffffffffffffff1681525050905080600001518160200151826060015183604001519450945094509450509193509193565b6001602052806000526040600020600091509050806000018054600181600116156101000203166002900480601f0160208091040260200160405190810160405280929190818152602001828054600181600116156101000203166002900480156120f35780601f106120c8576101008083540402835291602001916120f3565b820191906000526020600020905b8154815290600101906020018083116120d657829003601f168201915b505050505090806001018054600181600116156101000203166002900480601f0160208091040260200160405190810160405280929190818152602001828054600181600116156101000203166002900480156121915780601f1061216657610100808354040283529160200191612191565b820191906000526020600020905b81548152906001019060200180831161217457829003601f168201915b505050505090806002018054600181600116156101000203166002900480601f01602080910402602001604051908101604052809291908181526020018280546001816001161561010002031660029004801561222f5780601f106122045761010080835404028352916020019161222f565b820191906000526020600020905b81548152906001019060200180831161221257829003601f168201915b5050505050908060030160009054906101000a900473ffffffffffffffffffffffffffffffffffffffff16908060030160149054906101000a900463ffffffff16908060030160189054906101000a900463ffffffff16905086565b600060049054906101000a900463ffffffff1681565b600060405180807f4d616e7566616374757265720000000000000000000000000000000000000000815250600c0190506040518091039020600260008863ffffffff1663ffffffff16815260200190815260200160002060020160405160200180828054600181600116156101000203166002900480156123595780601f10612337576101008083540402835291820191612359565b820191906000526020600020905b815481529060010190602001808311612345575b505091505060405160208183030381529060405280519060200120141561258a57600080600081819054906101000a900463ffffffff168092919060010191906101000a81548163ffffffff021916908363ffffffff160217905550905085600160008363ffffffff1663ffffffff16815260200190815260200160002060000190805190602001906123ed9291906125d6565b5084600160008363ffffffff1663ffffffff16815260200190815260200160002060010190805190602001906124249291906125d6565b5083600160008363ffffffff1663ffffffff168152602001908152602001600020600201908051906020019061245b9291906125d6565b5082600160008363ffffffff1663ffffffff16815260200190815260200160002060030160146101000a81548163ffffffff021916908363ffffffff160217905550600260008863ffffffff1663ffffffff16815260200190815260200160002060030160009054906101000a900473ffffffffffffffffffffffffffffffffffffffff16600160008363ffffffff1663ffffffff16815260200190815260200160002060030160006101000a81548173ffffffffffffffffffffffffffffffffffffffff021916908373ffffffffffffffffffffffffffffffffffffffff16021790555042600160008363ffffffff1663ffffffff16815260200190815260200160002060030160186101000a81548163ffffffff021916908363ffffffff1602179055508091505061258f565b600090505b95945050505050565b6040518060800160405280606081526020016060815260200160608152602001600073ffffffffffffffffffffffffffffffffffffffff1681525090565b828054600181600116156101000203166002900490600052602060002090601f016020900481019282601f1061261757805160ff1916838001178555612645565b82800160010185558215612645579182015b82811115612644578251825591602001919060010190612629565b5b50905061265291906126a6565b5090565b6040518060800160405280600063ffffffff168152602001600063ffffffff168152602001600063ffffffff168152602001600073ffffffffffffffffffffffffffffffffffffffff1681525090565b6126c891905b808211156126c45760008160009055506001016126ac565b5090565b9056fea265627a7a72315820075c9bfe40aae6b9e4462a2decdae04fda36f9b496b1a9e4e382ec7458cfd19864736f6c63430005100032",
  "source": "pragma solidity >=0.4.0 <0.6.0;\r\n\r\ncontract supplyChain {\r\n    uint32 public p_id = 0; // Product ID\r\n    uint32 public u_id = 0; // Participant ID\r\n    uint32 public r_id = 0; // Registration ID\r\n\r\n    struct product {\r\n        string modelNumber;\r\n        string partNumber;\r\n        string serialNumber;\r\n        address productOwner;\r\n        uint32 cost;\r\n        uint32 mfgTimeStamp;\r\n    }\r\n    mapping(uint32 => product) public products;\r\n\r\n    struct participant {\r\n        string userName;\r\n        string password;\r\n        string participantType;\r\n        address participantAddress;\r\n    }\r\n    mapping(uint32 => participant) public participants;\r\n\r\n    struct registration {\r\n        uint32 productId;\r\n        uint32 ownerId;\r\n        uint32 trxTimeStamp;\r\n        address productOwner;\r\n    }\r\n\r\n    mapping(uint32 => registration) public registrations; // Registrations by Registration ID (r_id)\r\n    mapping(uint32 => uint32[]) public productTrack; // Registrations by Product ID (p_id) / Movement track for a product\r\n\r\n    event Transfer(uint32 productId);\r\n\r\n    function createParticipant(string memory _name, string memory _pass, address _pAdd, string memory _pType) public returns (uint32){\r\n        uint32 userId = u_id++;\r\n        participants[userId].userName = _name ;\r\n        participants[userId].password = _pass;\r\n        participants[userId].participantAddress = _pAdd;\r\n        participants[userId].participantType = _pType;\r\n        return userId;\r\n    }\r\n\r\n    function getParticipantDetails(uint32 _p_id) public view returns (string memory,address,string memory) {\r\n        return (participants[_p_id].userName,participants[_p_id].participantAddress,participants[_p_id].participantType);\r\n    }\r\n\r\n    function createProduct(uint32 _ownerId, string memory _modelNumber, string memory _partNumber, string memory _serialNumber, uint32 _productCost) public returns\r\n(uint32) {\r\n        if(keccak256(abi.encodePacked(participants[_ownerId].participantType)) == keccak256(\"Manufacturer\")) {\r\n            uint32 productId = p_id++;\r\n            products[productId].modelNumber = _modelNumber;\r\n            products[productId].partNumber = _partNumber;\r\n            products[productId].serialNumber = _serialNumber;\r\n            products[productId].cost = _productCost;\r\n            products[productId].productOwner = participants[_ownerId].\r\n            participantAddress;\r\n\r\n            products[productId].mfgTimeStamp = uint32(now);\r\n            return productId;\r\n        }\r\n        return 0;\r\n    }\r\n\r\n    modifier onlyOwner(uint32 _productId) {\r\n        require(msg.sender == products[_productId].productOwner );\r\n        _;\r\n        \r\n    }\r\n\r\n    function getProductDetails(uint32 _productId) public view returns (string memory,string memory,string memory,uint32,address,uint32){\r\n        return (products[_productId].modelNumber,products[_productId].partNumber,\r\n        products[_productId].serialNumber,products[_productId].cost,\r\n        products[_productId].productOwner,products[_productId].mfgTimeStamp);\r\n    }\r\n\r\n    function transferToOwner(uint32 _user1Id ,uint32 _user2Id, uint32 _prodId) public returns(bool) {\r\n        participant memory p1 = participants[_user1Id];\r\n        participant memory p2 = participants[_user2Id];\r\n        uint32 registration_id = r_id++;\r\n        registrations[registration_id].productId = _prodId;\r\n        registrations[registration_id].productOwner = p2.participantAddress;\r\n        registrations[registration_id].ownerId = _user2Id;\r\n        registrations[registration_id].trxTimeStamp = uint32(now);\r\n        products[_prodId].productOwner = p2.participantAddress;\r\n        productTrack[_prodId].push(registration_id);\r\n        emit Transfer(_prodId);\r\n\r\n        return (true);\r\n    }\r\n\r\n    // function getProductTrack(uint32 _prodId) external view returns (uint32[]) {\r\n    //     return productTrack[_prodId];\r\n    // }\r\n\r\n    function getRegistrationDetails(uint32 _regId) public view returns (uint32,uint32,address,uint32) {\r\n        registration memory r = registrations[_regId];\r\n        return (r.productId,r.ownerId,r.productOwner,r.trxTimeStamp);\r\n    }\r\n\r\n}",
  "sourcePath": "C:/Users/webra/onedrive/desktop/supply/contracts/supplyChain.sol",
  "compiler": {
    "name": "solc",
    "version": "0.5.16+commit.9c3226ce.Emscripten.clang"
  },
  "schemaVersion": "3.3.4",
  "updatedAt": "2021-02-14T00:03:55.394Z",
  "networkType": "ethereum",
  "devdoc": {
    "methods": {}
  },
  "userdoc": {
    "methods": {}
  }
}